{
  "contractName": "OSnap",
  "abi": [
    {
      "inputs": [],
      "stateMutability": "nonpayable",
      "type": "constructor"
    },
    {
      "anonymous": false,
      "inputs": [
        {
          "indexed": true,
          "internalType": "uint256",
          "name": "postID",
          "type": "uint256"
        },
        {
          "indexed": true,
          "internalType": "address",
          "name": "postedBy",
          "type": "address"
        },
        {
          "indexed": false,
          "internalType": "uint256",
          "name": "tipAPostID",
          "type": "uint256"
        },
        {
          "indexed": false,
          "internalType": "uint256",
          "name": "tipAAmt",
          "type": "uint256"
        },
        {
          "indexed": false,
          "internalType": "uint256",
          "name": "tipBPostID",
          "type": "uint256"
        },
        {
          "indexed": false,
          "internalType": "uint256",
          "name": "tipBAmt",
          "type": "uint256"
        },
        {
          "indexed": false,
          "internalType": "bytes32",
          "name": "digest",
          "type": "bytes32"
        },
        {
          "indexed": false,
          "internalType": "uint8",
          "name": "hashFunction",
          "type": "uint8"
        },
        {
          "indexed": false,
          "internalType": "uint8",
          "name": "size",
          "type": "uint8"
        }
      ],
      "name": "Post",
      "type": "event"
    },
    {
      "inputs": [],
      "name": "getPostID",
      "outputs": [
        {
          "internalType": "uint256",
          "name": "id",
          "type": "uint256"
        }
      ],
      "stateMutability": "view",
      "type": "function"
    },
    {
      "inputs": [
        {
          "internalType": "uint256",
          "name": "_id",
          "type": "uint256"
        }
      ],
      "name": "getPostById",
      "outputs": [
        {
          "internalType": "bytes32",
          "name": "digest",
          "type": "bytes32"
        },
        {
          "internalType": "uint8",
          "name": "hashFunction",
          "type": "uint8"
        },
        {
          "internalType": "uint8",
          "name": "size",
          "type": "uint8"
        }
      ],
      "stateMutability": "view",
      "type": "function"
    },
    {
      "inputs": [
        {
          "internalType": "address",
          "name": "_addr",
          "type": "address"
        },
        {
          "internalType": "uint256",
          "name": "_idx",
          "type": "uint256"
        }
      ],
      "name": "getPostByAddressIdx",
      "outputs": [
        {
          "internalType": "bytes32",
          "name": "digest",
          "type": "bytes32"
        },
        {
          "internalType": "uint8",
          "name": "hashFunction",
          "type": "uint8"
        },
        {
          "internalType": "uint8",
          "name": "size",
          "type": "uint8"
        }
      ],
      "stateMutability": "view",
      "type": "function"
    },
    {
      "inputs": [
        {
          "internalType": "address",
          "name": "_addr",
          "type": "address"
        }
      ],
      "name": "getTotalPostsByAddress",
      "outputs": [
        {
          "internalType": "uint256",
          "name": "length",
          "type": "uint256"
        }
      ],
      "stateMutability": "view",
      "type": "function"
    },
    {
      "inputs": [
        {
          "internalType": "uint256",
          "name": "_postID",
          "type": "uint256"
        }
      ],
      "name": "getOPByID",
      "outputs": [
        {
          "internalType": "address payable",
          "name": "poster",
          "type": "address"
        }
      ],
      "stateMutability": "view",
      "type": "function"
    },
    {
      "inputs": [
        {
          "internalType": "uint256",
          "name": "_postID",
          "type": "uint256"
        }
      ],
      "name": "addTip",
      "outputs": [],
      "stateMutability": "payable",
      "type": "function"
    },
    {
      "inputs": [
        {
          "internalType": "uint256",
          "name": "_tipAPostId",
          "type": "uint256"
        },
        {
          "internalType": "uint256",
          "name": "_tipAAmt",
          "type": "uint256"
        },
        {
          "internalType": "uint256",
          "name": "_tipBPostId",
          "type": "uint256"
        },
        {
          "internalType": "uint256",
          "name": "_tipBAmt",
          "type": "uint256"
        },
        {
          "internalType": "bytes32",
          "name": "_digest",
          "type": "bytes32"
        },
        {
          "internalType": "uint8",
          "name": "_hashFunction",
          "type": "uint8"
        },
        {
          "internalType": "uint8",
          "name": "_size",
          "type": "uint8"
        }
      ],
      "name": "addPost",
      "outputs": [
        {
          "internalType": "uint256",
          "name": "id",
          "type": "uint256"
        }
      ],
      "stateMutability": "payable",
      "type": "function"
    }
  ],
  "bytecode": "0x6080604052600060035534801561001557600080fd5b5033600460006101000a81548173ffffffffffffffffffffffffffffffffffffffff021916908373ffffffffffffffffffffffffffffffffffffffff160217905550610c4d806100666000396000f3fe6080604052600436106100705760003560e01c806364e958951161004e57806364e95895146101895780638e26c7e6146101ec578063d8b65c051461021a578063dfb350671461029d57610070565b806306b9932c146100755780634989bfbc146100a05780634a4a057c14610124575b600080fd5b34801561008157600080fd5b5061008a610302565b6040518082815260200191505060405180910390f35b61010e600480360360e08110156100b657600080fd5b810190808035906020019092919080359060200190929190803590602001909291908035906020019092919080359060200190929190803560ff169060200190929190803560ff16906020019092919050505061030c565b6040518082815260200191505060405180910390f35b34801561013057600080fd5b506101736004803603602081101561014757600080fd5b81019080803573ffffffffffffffffffffffffffffffffffffffff16906020019092919050505061058a565b6040518082815260200191505060405180910390f35b34801561019557600080fd5b506101c2600480360360208110156101ac57600080fd5b81019080803590602001909291905050506105d6565b604051808481526020018360ff1681526020018260ff168152602001935050505060405180910390f35b6102186004803603602081101561020257600080fd5b810190808035906020019092919050505061069f565b005b34801561022657600080fd5b506102736004803603604081101561023d57600080fd5b81019080803573ffffffffffffffffffffffffffffffffffffffff169060200190929190803590602001909291905050506106ac565b604051808481526020018360ff1681526020018260ff168152602001935050505060405180910390f35b3480156102a957600080fd5b506102d6600480360360208110156102c057600080fd5b81019080803590602001909291905050506108c0565b604051808273ffffffffffffffffffffffffffffffffffffffff16815260200191505060405180910390f35b6000600354905090565b60003485880114610385576040517f08c379a00000000000000000000000000000000000000000000000000000000081526004018080602001828103825260208152602001807f546970732073686f756c6420657175616c206d6573736167652076616c75652e81525060200191505060405180910390fd5b61038f88886108fd565b61039986866108fd565b6103a1610bed565b60405180606001604052808681526020018560ff1681526020018460ff1681525090508060008060035481526020019081526020016000206000820151816000015560208201518160010160006101000a81548160ff021916908360ff16021790555060408201518160010160016101000a81548160ff021916908360ff160217905550905050600260003373ffffffffffffffffffffffffffffffffffffffff1673ffffffffffffffffffffffffffffffffffffffff16815260200190815260200160002060035490806001815401808255809150506001900390600052602060002001600090919091909150553360016000600354815260200190815260200160002060006101000a81548173ffffffffffffffffffffffffffffffffffffffff021916908373ffffffffffffffffffffffffffffffffffffffff1602179055503373ffffffffffffffffffffffffffffffffffffffff166003547f399c1f2398b091fd7bbc7ce98f722bea316d5a4dd11c2eb77942a3b38309dd058b8b8b8b8b8b8b604051808881526020018781526020018681526020018581526020018481526020018360ff1681526020018260ff16815260200197505050505050505060405180910390a36003600081548092919060010191905055915050979650505050505050565b6000600260008373ffffffffffffffffffffffffffffffffffffffff1673ffffffffffffffffffffffffffffffffffffffff168152602001908152602001600020805490509050919050565b60008060006003548410610652576040517f08c379a000000000000000000000000000000000000000000000000000000000815260040180806020018281038252600f8152602001807f506f7374206e6f7420666f756e642e000000000000000000000000000000000081525060200191505060405180910390fd5b6000806000868152602001908152602001600020905080600001548160010160009054906101000a900460ff168260010160019054906101000a900460ff16935093509350509193909250565b6106a981346108fd565b50565b600080600080600260008773ffffffffffffffffffffffffffffffffffffffff1673ffffffffffffffffffffffffffffffffffffffff1681526020019081526020016000208054905011610768576040517f08c379a00000000000000000000000000000000000000000000000000000000081526004018080602001828103825260128152602001807f41646472657373206e6f7420666f756e642e000000000000000000000000000081525060200191505060405180910390fd5b600260008673ffffffffffffffffffffffffffffffffffffffff1673ffffffffffffffffffffffffffffffffffffffff16815260200190815260200160002080549050841061081f576040517f08c379a000000000000000000000000000000000000000000000000000000000815260040180806020018281038252600f8152602001807f506f7374206e6f7420666f756e642e000000000000000000000000000000000081525060200191505060405180910390fd5b6000806000600260008973ffffffffffffffffffffffffffffffffffffffff1673ffffffffffffffffffffffffffffffffffffffff168152602001908152602001600020878154811061086e57fe5b90600052602060002001548152602001908152602001600020905080600001548160010160009054906101000a900460ff168260010160019054906101000a900460ff16935093509350509250925092565b60006001600083815260200190815260200160002060009054906101000a900473ffffffffffffffffffffffffffffffffffffffff169050919050565b60008111610973576040517f08c379a00000000000000000000000000000000000000000000000000000000081526004018080602001828103825260128152602001807f4d697373696e67207469702076616c75652e000000000000000000000000000081525060200191505060405180910390fd5b600460009054906101000a900473ffffffffffffffffffffffffffffffffffffffff1673ffffffffffffffffffffffffffffffffffffffff163373ffffffffffffffffffffffffffffffffffffffff1614806109d0575060035482105b610a42576040517f08c379a000000000000000000000000000000000000000000000000000000000815260040180806020018281038252600f8152602001807f506f7374206e6f7420666f756e642e000000000000000000000000000000000081525060200191505060405180910390fd5b600460009054906101000a900473ffffffffffffffffffffffffffffffffffffffff1673ffffffffffffffffffffffffffffffffffffffff163373ffffffffffffffffffffffffffffffffffffffff161480610afd57503373ffffffffffffffffffffffffffffffffffffffff166001600084815260200190815260200160002060009054906101000a900473ffffffffffffffffffffffffffffffffffffffff1673ffffffffffffffffffffffffffffffffffffffff1614155b610b6f576040517f08c379a000000000000000000000000000000000000000000000000000000000815260040180806020018281038252601c8152602001807f53656c662d74697070696e6720697320646973636f7572616765642e0000000081525060200191505060405180910390fd5b6001600083815260200190815260200160002060009054906101000a900473ffffffffffffffffffffffffffffffffffffffff1673ffffffffffffffffffffffffffffffffffffffff166108fc829081150290604051600060405180830381858888f19350505050158015610be8573d6000803e3d6000fd5b505050565b604051806060016040528060008019168152602001600060ff168152602001600060ff168152509056fea2646970667358221220489ec37b6d80e087d150c582b661dafa40924a9127ecfc67b92ee610962e696164736f6c634300060c0033",
  "immutableReferences": {},
  "source": "// SPDX-License-Identifier: MIT\npragma solidity ^0.6.0;\nimport \"./SafeMath.sol\";\n\ncontract OSnap {\n    using SafeMath for uint256;\n\n    // IPFS / Filecoin Reference\n    struct Multihash {\n        bytes32 digest;\n        uint8 hashFunction;\n        uint8 size;\n    }\n\n    // Emits when a new post is added\n    event Post(\n        uint256 indexed postID,\n        address indexed postedBy,\n        uint256 tipAPostID,\n        uint256 tipAAmt,\n        uint256 tipBPostID,\n        uint256 tipBAmt,\n        bytes32 digest,\n        uint8 hashFunction,\n        uint8 size\n    );\n\n    // Internal datastore.\n    mapping(uint256 => Multihash) private posts;\n    mapping(uint256 => address payable) private payableByPostID;\n    mapping(address => uint256[]) private postsByAddress;\n\n    // Global postID increments after each posting.\n    uint256 private postID = 0;\n\n    // Used to bootstap tangle.\n    address payable private _bootstapAddr;\n\n    constructor() public {\n        _bootstapAddr = msg.sender;\n    }\n\n    /* Returns the current postID */\n    function getPostID() public view returns (uint256 id) {\n        return postID;\n    }\n\n    /* Returns a post multihash by postID reference. */\n    function getPostById(uint256 _id)\n        public\n        view\n        returns (\n            bytes32 digest,\n            uint8 hashFunction,\n            uint8 size\n        )\n    {\n        // Require valid post identifier.\n        require(_id < postID, \"Post not found.\");\n\n        // Return post multihash.\n        Multihash storage post = posts[_id];\n        return (post.digest, post.hashFunction, post.size);\n    }\n\n    /* Returns a post multihash by address:idx reference. */\n    function getPostByAddressIdx(address _addr, uint256 _idx)\n        public\n        view\n        returns (\n            bytes32 digest,\n            uint8 hashFunction,\n            uint8 size\n        )\n    {\n        // Require valid post address & index.\n        require(postsByAddress[_addr].length > 0, \"Address not found.\");\n        require(_idx < postsByAddress[_addr].length, \"Post not found.\");\n\n        // Return post multihash.\n        Multihash storage post = posts[postsByAddress[_addr][_idx]];\n        return (post.digest, post.hashFunction, post.size);\n    }\n\n    /* Returns the number of multihashes posted by an address. */\n    function getTotalPostsByAddress(address _addr)\n        public\n        view\n        returns (uint256 length)\n    {\n        return postsByAddress[_addr].length;\n    }\n\n    /* Returns the original poster by postID */\n    function getOPByID(uint256 _postID)\n        public\n        view\n        returns (address payable poster)\n    {\n        return payableByPostID[_postID];\n    }\n\n    function _addTip(uint256 _postID, uint256 _tip) private {\n        // Validate tip transaction.\n        require(_tip > 0, \"Missing tip value.\");\n        require(\n            msg.sender == _bootstapAddr || (_postID < postID),\n            \"Post not found.\"\n        );\n        require(\n            msg.sender == _bootstapAddr ||\n                (payableByPostID[_postID] != msg.sender),\n            \"Self-tipping is discouraged.\"\n        );\n\n        // Process tip.\n        payableByPostID[_postID].transfer(_tip);\n    }\n\n    /* Adds a tip. */\n    function addTip(uint256 _postID) public payable {\n        _addTip(_postID, msg.value);\n    }\n\n    /* Adds a new post to the tangle. */\n    function addPost(\n        uint256 _tipAPostId,\n        uint256 _tipAAmt,\n        uint256 _tipBPostId,\n        uint256 _tipBAmt,\n        bytes32 _digest,\n        uint8 _hashFunction,\n        uint8 _size\n    ) public payable returns (uint256 id) {\n        // Validate tip tangle amounts.\n        require(\n            _tipAAmt + _tipBAmt == msg.value,\n            \"Tips should equal message value.\"\n        );\n\n        // Add tips to tangle.\n        _addTip(_tipAPostId, _tipAAmt);\n        _addTip(_tipBPostId, _tipBAmt);\n\n        // Construct the multihash object.\n        Multihash memory post = Multihash(_digest, _hashFunction, _size);\n\n        // Assign the postID and append it to the postsByAddress list.\n        posts[postID] = post;\n        postsByAddress[msg.sender].push(postID);\n        payableByPostID[postID] = msg.sender;\n\n        // Emit the Post event.\n        emit Post(\n            postID,\n            msg.sender,\n            _tipAPostId,\n            _tipAAmt,\n            _tipBPostId,\n            _tipBAmt,\n            _digest,\n            _hashFunction,\n            _size\n        );\n\n        // Increment the postID and return its value.\n        return postID++;\n    }\n}\n",
  "sourcePath": "/Users/ryanbell/Desktop/osnap/smart-contracts/contracts/OSnap.sol",
  "compiler": {
    "name": "solc",
    "version": "0.6.12+commit.27d51765.Emscripten.clang"
  },
  "schemaVersion": "3.2.1",
  "updatedAt": "2020-07-30T03:20:40.894Z",
  "devdoc": {
    "kind": "dev",
    "methods": {},
    "version": 1
  },
  "userdoc": {
    "kind": "user",
    "methods": {},
    "version": 1
  }
}